:020000040800F2
:100000000080012009160008251500082B1500089E
:1000100031150008371500083D15000800000000E4
:100020000000000000000000000000004315000870
:1000300051150008000000005F1500086D1500084C
:1000400059160008591600085916000859160008D4
:1000500059160008591600085916000859160008C4
:1000600059160008591600085916000859160008B4
:1000700059160008591600085916000859160008A4
:10008000591600085916000859160008000000000B
:1000900000000000000000000000000059160008E9
:1000A0005916000859160008591600085916000874
:1000B0005916000859160008591600085916000864
:1000C0005916000859160008591600085916000854
:1000D00059160008591600085916000800000000BB
:1000E00059160008591600085916000800000000AB
:1000F0000000000000000000000000005916000889
:10010000000000005916000859160008591600088A
:1001100000000000000000000000000000000000DF
:1001200059160008591600085916000859160008F3
:100130005916000800000000000000000000000048
:100140000000000000000000000000005916000838
:1001500059160008591600085916000859160008C3
:1001600059160008591600080000000000000000A1
:10017000000000000000000000000000000000007F
:1001800000000000591600080000000000000000F8
:0401900059160008F4
:1001A00010B5054C237833B9044B13B10448AFF3B1
:1001B00000800123237010BD7000002000000000AB
:1001C0006843000808B5034B1BB103490348AFF36C
:1001D000008008BD00000000740000206843000893
:1001E00001F0FF01102A2BDB10F0070F08D010F8E8
:1001F000013B013A8B422DD010F0070F42B3F6D1EC
:10020000F0B441EA012141EA014122F007047FF004
:1002100000070023F0E80256083C85EA010586EA5B
:10022000010685FA47F5A3FA87F586FA47F6A5FA97
:1002300087F68EB9EED1F0BC01F0FF0102F00702A3
:1002400032B110F8013B013A83EA010313B1F8D14E
:100250000020704701387047002D06BF354603382F
:10026000073815F0010F07D1013015F4807F02BF68
:10027000013015F4C03F0130F0BC0138704700BFB9
:1002800070B54FF0FF0C4CF4E06C1CEA11541DBF2C
:100290001CEA135594EA0C0F95EA0C0F00F0DEF8F7
:1002A0002C4481EA030621EA4C5123EA4C5350EADC
:1002B000013518BF52EA033541F4801143F480132D
:1002C00038D0A0FB02CE4FF00005E1FB02E506F0BE
:1002D0000042E0FB03E54FF00006E1FB03569CF013
:1002E000000F18BF4EF0010EA4F1FF04B6F5007F19
:1002F00064F5407404D25FEA4E0E6D4146EB06068B
:1003000042EAC62141EA55514FEAC52040EA5E5013
:100310004FEACE2EB4F1FD0C88BFBCF5E06F1ED8BD
:10032000BEF1004F08BF5FEA500E50F1000041EBF4
:10033000045170BD06F0004646EA010140EA0200A1
:1003400081EA0301B4EB5C04C2BFD4EB0C0541EAC3
:10035000045170BD41F480114FF0000E013C00F3D8
:10036000AB8014F1360FDEBF002001F0004170BDFC
:10037000C4F10004203C35DA0C341BDC04F1140415
:10038000C4F1200500FA05F320FA04F001FA05F2A1
:1003900040EA020001F0004221F0004110EBD3706E
:1003A00021FA04F642EB06015EEA430E08BF20EA9A
:1003B000D37070BDC4F10C04C4F1200500FA04F33D
:1003C00020FA05F001FA04F240EA020001F00041CF
:1003D00010EBD37041F100015EEA430E08BF20EA42
:1003E000D37070BDC4F1200500FA05F24EEA020E8A
:1003F00020FA04F301FA05F243EA020321FA04F0B9
:1004000001F0004121FA04F220EA020000EBD3706F
:100410005EEA430E08BF20EAD37070BD94F0000F6F
:100420000FD101F00046400041EB010111F4801FA3
:1004300008BF013CF7D041EA060195F0000F18BF54
:10044000704703F00046520043EB030313F4801F90
:1004500008BF013DF7D043EA0603704794EA0C0F4A
:100460000CEA135518BF95EA0C0F0CD050EA410660
:1004700018BF52EA4306D1D181EA030101F00041DD
:100480004FF0000070BD50EA410606BF1046194605
:1004900052EA430619D094EA0C0F02D150EA013611
:1004A00013D195EA0C0F05D152EA03361CBF104652
:1004B00019460AD181EA030101F0004141F0FE41F1
:1004C00041F470014FF0000070BD41F0FE4141F475
:1004D000780170BD81F0004102E000BF83F000436D
:1004E00030B54FEA41044FEA430594EA050F08BFCF
:1004F00090EA020F1FBF54EA000C55EA020C7FEA93
:10050000645C7FEA655C00F0E2804FEA5454D4EB0F
:100510005555B8BF6D420CDD2C4480EA020281EAD9
:10052000030382EA000083EA010180EA020281EA11
:100530000303362D88BF30BD11F0004F4FEA013163
:100540004FF4801C4CEA113102D0404261EB410172
:1005500013F0004F4FEA03334CEA133302D05242F8
:1005600063EB430394EA050F00F0A780A4F10104B4
:10057000D5F1200E0DDB02FA0EFC22FA05F28018EE
:1005800041F1000103FA0EF2801843FA05F35941D4
:100590000EE0A5F120050EF1200E012A03FA0EFC53
:1005A00028BF4CF0020C43FA05F3C01851EBE3717D
:1005B00001F0004507D54FF0000EDCF1000C7EEB9A
:1005C00000006EEB0101B1F5801F1BD3B1F5001FD8
:1005D0000CD349085FEA30004FEA3C0C04F10104F7
:1005E0004FEA445212F5800F80F09A80BCF1004F20
:1005F00008BF5FEA500C50F1000041EB045141EAA2
:10060000050130BD5FEA4C0C404141EB0101013C6A
:1006100028BFB1F5801FE9D291F0000F04BF014659
:100620000020B1FA81F308BF2033A3F10B03B3F12B
:1006300020020CDA0C3208DD02F1140CC2F10C02BB
:1006400001FA0CF021FA02F10CE002F11402D8BF19
:10065000C2F1200C01FA02F120FA0CFCDCBF41EAE5
:100660000C019040E41AA2BF01EB0451294330BDB4
:100670006FEA04041F3C1CDA0C340EDC04F1140491
:10068000C4F1200220FA04F001FA02F340EA030068
:1006900021FA04F345EA030130BDC4F10C04C4F1AE
:1006A000200220FA02F001FA04F340EA030029468E
:1006B00030BD21FA04F0294630BD94F0000F83F4D8
:1006C000801306BF81F480110134013D4EE77FEABB
:1006D000645C18BF7FEA655C29D094EA050F08BF07
:1006E00090EA020F05D054EA000C04BF19461046E8
:1006F00030BD91EA030F1EBF0021002030BD5FEA2C
:10070000545C05D14000494128BF41F0004130BD53
:1007100014F580043CBF01F5801130BD01F00045A7
:1007200045F0FE4141F470014FF0000030BD7FEA1A
:10073000645C1ABF194610467FEA655C1CBF0B4615
:10074000024650EA013406BF52EA033591EA030F2C
:1007500041F4002130BD00BF90F0000F04BF002124
:10076000704730B54FF4806404F132044FF0000557
:100770004FF0000150E700BF90F0000F04BF0021D0
:10078000704730B54FF4806404F1320410F0004536
:1007900048BF40424FF000013EE700BF42004FEA31
:1007A000E2014FEA31014FEA02701FBF12F07F43AE
:1007B00093F07F4F81F06051704732F07F4208BF65
:1007C000704793F07F4F04BF41F40021704730B56C
:1007D0004FF4607401F0004521F000411CE700BFB8
:1007E00050EA010208BF704730B54FF000050AE03B
:1007F00050EA010208BF704730B511F0004502D53C
:10080000404261EB41014FF4806404F132045FEA3D
:10081000915C3FF4D8AE4FF003025FEADC0C18BFE6
:1008200003325FEADC0C18BF033202EBDC02C2F1D8
:10083000200300FA03FC20FA02F001FA03FE40EA6A
:100840000E0021FA02F11444BDE600BF4FEA410256
:10085000B2F1E04324BFB3F5001CDCF1FE5C0DD91E
:1008600001F0004C4FEAC0024CEA5070B2F1004F68
:1008700040EB830008BF20F00100704711F0804F6B
:1008800021D113F13872BCBF01F00040704741F430
:1008900080114FEA5252C2F11802C2F1200C10FA34
:1008A0000CF320FA02F018BF40F001004FEAC12318
:1008B0004FEAD32303FA0CFC40EA0C0023FA02F3BC
:1008C0004FEA4303CCE77FEA625307D150EA013392
:1008D0001EBF4FF0FE4040F44000704701F0004062
:1008E00040F0FE4040F40000704700BF53B94AB9E1
:1008F000002908BF00281CBF4FF0FF314FF0FF3028
:1009000000F06EB9ADF1080C6DE904CE00F006F808
:10091000DDF804E0DDE9022304B070472DE9F0477B
:10092000089D04468C46002B40F083808A4217467F
:1009300047D9B2FA82F242B1C2F1200024FA00F0A3
:100940009140974040EA010C94404FEA1748230C2D
:10095000BCFBF8F61FFA87FE08FB16C143EA014309
:1009600006FB0EF1994209D9FB1806F1FF3080F021
:100970001981994240F21681023E3B445B1AA4B2AF
:10098000B3FBF8F008FB103344EA034400FB0EFE0F
:10099000A64509D93C1900F1FF3380F00581A64531
:1009A00040F2028102383C4440EA0640A4EB0E04C7
:1009B00000261DB1D4400023C5E900433146BDE8FF
:1009C000F08702B9FFDEB2FA82F2002A50D1CB1BC7
:1009D0004FEA174E1FFA87F80126B3FBFEFC210CE5
:1009E0000EFB1C3341EA034108FB0CF38B4207D991
:1009F00079180CF1FF3002D28B4200F2E980844674
:100A0000C91AA3B2B1FBFEF00EFB101143EA014478
:100A100008FB00F8A04507D93C1900F1FF3302D2CA
:100A2000A04500F2D9801846A4EB080440EA0C4027
:100A3000BFE78B4209D9002D00F0B1800026C5E93F
:100A4000000130463146BDE8F087B3FA83F6002E48
:100A50004AD18B4202D3824200F2B880841A61EB01
:100A6000030101208C46002DA8D0C5E9004CA5E764
:100A7000C2F1200320FA03F6974001FA02F04FEA90
:100A8000174ED9403043030CB1FBFEF61FFA87F82E
:100A90000EFB161143EA014306FB08F1994204FAE2
:100AA00002F409D9FB1806F1FF3C80F08D809942D1
:100AB00040F28A80023E3B445B1A81B2B3FBFEF0F7
:100AC0000EFB103341EA034100FB08F38B4207D9C8
:100AD000791800F1FF3C73D28B4271D90238394446
:100AE000CB1A40EA064678E7C6F1200C03FA06F472
:100AF00022FA0CF31C4320FA0CF701FA06F34FEA32
:100B0000144E21FA0CF11F433B0CB1FBFEF91FFA06
:100B100084F80EFB191143EA014109FB08FA8A45E2
:100B200002FA06F200FA06F308D9611809F1FF305B
:100B300048D28A4546D9A9F102092144A1EB0A010C
:100B4000BFB2B1FBFEF00EFB101147EA014700FBFC
:100B500008F8B84507D9E71900F1FF312ED2B8459A
:100B60002CD90238274440EA0940A7EB0807A0FB2C
:100B700002894F45C64649461AD317D05DB1B3EB3B
:100B80000E0267EB010707FA0CFCF2404CEA020286
:100B9000F740C5E9002700263146BDE8F0872E461C
:100BA00028460BE70646E9E61846FDE64345E5D24A
:100BB000B8EB020E69EB04010138DFE70846D2E723
:100BC00060468DE78146B9E7664675E730464AE7F5
:100BD000ACF1020C394413E702383C4424E700BF6F
:100BE000704700BF80B58EB002AFF860B9607A6020
:100BF00000F09AFD024607F110007B680193BB6884
:100C00000093FB68064902F081FF07F1100164239D
:100C10001D22044802F0A3FC00BF3037BD4680BD52
:100C2000804300087001002080B582B000AF78607A
:100C30007B68002B14DD00224FF48071214800F006
:100C4000E9FF214B1B6800229A6301224FF4806167
:100C50001C4800F0DFFF1C4B1B687A681A642CE00C
:100C60007B68002B15DA00224FF48061154800F0F4
:100C7000D1FF154B1B6800221A6401224FF48071CA
:100C8000104800F0C7FF7B685A420F4B1B689A63FD
:100C900013E00D4B1B6800221A640B4B1B680022EB
:100CA0009A6301224FF48071064800F0B3FF0122DD
:100CB0004FF48061034800F0ADFF00BF0837BD4628
:100CC00080BD00BF00000240E000002000000000E6
:100CD0002DE9B0438AB000AF00F0C0FC00F0DAF8B4
:100CE00000F0AEFA00F02EFA00F080FA00F032F9CF
:100CF00000F0DCF93C21624801F048FE0421614823
:100D000001F0EEFC0C215F4801F0EAFC5E4801F0C6
:100D100033FC4FF00003BB614FF000037B624FF0E8
:100D200000037B614FF4FA733B614FF4FA733B624B
:100D30000023FB610023FB6042F21073BB604FF0A5
:100D400000037B60514B42F210725A624FF08043B5
:100D500000225A6200BF00F0E7FC0346B3F5257F8E
:100D6000F9D34A4B5B6AA3F51C53103B5B00FB6055
:100D7000FB68C3F5FA733B613869FFF7FDFC4FF080
:100D80003332434BFFF77CFA02460B4610461946B6
:100D9000FFF75CFD0346BB61786AFFF7FFFC044682
:100DA0000D463869FFF7E8FC804689467868FFF70A
:100DB000F5FC4FF000024FF00003FFF761FA024626
:100DC0000B4640464946FFF75BFA02460B46204673
:100DD0002946FFF785FB02460B4610461946FFF7EA
:100DE00035FD03467B623A693B6AD31A642202FBF3
:100DF00003F31846FFF7C0FC1FA3D3E90023FFF756
:100E00003FFA02460B4610461946FFF71FFD034600
:100E10007B6197ED067AD7ED057A37EE277AD7ED25
:100E2000097A77EE277AFDEEE77A17EE903AFB61C2
:100E3000FB69642B02DD6423FB6106E0FB6913F1AF
:100E4000640F02DA6FF06303FB61F869FFF7ECFEF1
:100E50003A69F969F868FFF7C5FE00BF4FF08043B3
:100E60005A6ABB689A42F9D33B693B624FF08043B0
:100E700000225A6275E700BF9A9999999999C93FDA
:100E800098000020E0000020280100200008004019
:100E90003333F33F80B594B000AF07F12003302225
:100EA0000021184602F02AFE07F10C0300221A6006
:100EB0005A609A60DA601A610023BB60234B1B6C96
:100EC000224A43F080531364204B1B6C03F0805381
:100ED000BB60BB6800237B601D4B1B6823F4404351
:100EE0001B4A43F400431360194B1B6803F440434F
:100EF0007B607B6802233B620123FB6210233B6320
:100F00000023BB6307F12003184600F09DFE034653
:100F1000002B01D000F0D8F90F23FB6000233B61C8
:100F200000237B610023BB610023FB6107F10C03FD
:100F30000021184601F000F90346002B01D000F013
:100F4000C3F900BF5037BD4680BD00BF0038024026
:100F50000070004080B596B000AF07F14803002252
:100F60001A605A609A60DA6007F1400300221A6042
:100F70005A6007F1240300221A605A609A60DA600E
:100F80001A615A619A613B1D20220021184602F025
:100F9000B5FD444B444A1A60424B9F225A60414B74
:100FA00010229A603F4B6422DA603E4B00221A61A5
:100FB0003C4B00225A613B4B00229A61394801F0B8
:100FC0008BFA0346002B01D000F07EF94FF48053DA
:100FD000BB6407F148031946324801F023FE03467B
:100FE000002B01D000F070F92E4801F01FFB0346E2
:100FF000002B01D000F068F900233B6400237B64E0
:1010000007F140031946274802F09CF90346002BDC
:1010100001D000F059F960237B620023BB620023FA
:10102000FB6200233B6300237B630023BB6300233D
:10103000FB6307F12403042219461A4801F034FD2A
:101040000346002B01D000F03FF907F124030C22E6
:101050001946144801F028FD0346002B01D000F08A
:1010600033F900237B600023BB600023FB60002377
:101070003B6100237B614FF40053BB6100233B6263
:101080003B1D1946074802F0CBF90346002B01D05F
:1010900000F01AF9034800F0C3F900BF5837BD4605
:1010A00080BD00BFE00000200000014080B586B098
:1010B00000AF07F1080300221A605A609A60DA60F4
:1010C0003B4600221A605A601D4B4FF080421A6066
:1010D0001B4B0F225A601A4B00229A60184B4FF696
:1010E000FF72DA60164B00221A61154B00229A61DA
:1010F000134801F0F1F90346002B01D000F0E4F8A9
:101100004FF48053BB6007F1080319460C4801F007
:1011100089FD0346002B01D000F0D6F800233B6088
:1011200000237B603B461946054802F00BF9034655
:10113000002B01D000F0C8F800BF1837BD4680BDB5
:101140002801002080B58CB000AF07F10C032422E9
:101150000021184602F0D2FC3B1D00221A605A60A2
:10116000204B214A1A601F4B00225A601D4B00225F
:101170009A601C4B4FF6FF72DA601A4B00221A611C
:10118000184B00229A610123FB6000233B6101237D
:101190007B610023BB610023FB6100233B620123D1
:1011A0007B620023BB620023FB6207F10C0319463C
:1011B0000C4801F045FB0346002B01D000F084F8F9
:1011C00000237B600023BB603B1D1946054802F0ED
:1011D000B9F80346002B01D000F076F800BF303795
:1011E000BD4680BD980000200008004080B500AFDB
:1011F000114B124A1A60104B4FF4E1325A600E4BF9
:1012000000229A600C4B0022DA600B4B00221A611C
:10121000094B0C225A61084B00229A61064B0022AE
:10122000DA61054802F04EF90346002B01D000F0C8
:101230004BF800BF80BD00BF70010020004400409B
:1012400080B588B000AF07F10C0300221A605A6025
:101250009A60DA601A610023BB60194B1B6B184A55
:1012600043F001031363164B1B6B03F00103BB60D8
:10127000BB6800237B60124B1B6B114A43F00203D7
:1012800013630F4B1B6B03F002037B607B68002230
:101290004FF4A0610B4800F0BDFC4FF4A063FB606D
:1012A00001233B6100237B610023BB6107F10C0339
:1012B0001946044800F02AFB00BF2037BD4680BD18
:1012C000003802400000024080B400AF72B600BF98
:1012D000FEE7000080B483B000AF00237B60104BBA
:1012E0005B6C0F4A43F4804353640D4B5B6C03F417
:1012F00080437B607B6800233B60094B1B6C084A82
:1013000043F080531364064B1B6C03F080533B6027
:101310003B6800BF0C37BD465DF8047B704700BFDB
:101320000038024080B485B000AF78607B681B68ED
:10133000154A93420ED10023FB60144B5B6C134A99
:1013400043F001035364114B5B6C03F00103FB603A
:10135000FB6812E07B681B68B3F1804F0DD100235E
:10136000BB600A4B1B6C094A43F001031364074B33
:101370001B6C03F00103BB60BB6800BF1437BD46A4
:101380005DF8047B704700BF000001400038024058
:1013900080B58AB000AF786007F1140300221A60AC
:1013A0005A609A60DA601A617B681B68194A934236
:1013B0002BD100233B61184B1B6C174A43F00403ED
:1013C0001364154B1B6C03F004033B613B69002362
:1013D000FB60114B1B6B104A43F0020313630E4B6F
:1013E0001B6B03F00203FB60FB68C0237B610223DD
:1013F000BB610123FB6100233B6202237B6207F197
:1014000014031946054800F081FA00BF2837BD468D
:1014100080BD00BF000800400038024000040240C8
:1014200080B588B000AF786007F10C0300221A6025
:101430005A609A60DA601A617B681B68124A9342AC
:101440001ED10023BB60114B1B6B104A43F00103FC
:1014500013630E4B1B6B03F00103BB60BB684FF4BF
:101460002063FB6002233B6100237B610023BB619F
:101470000123FB6107F10C031946054800F046FA09
:1014800000BF2037BD4680BD00000140003802404B
:101490000000024080B58AB000AF786007F1140305
:1014A00000221A605A609A60DA601A617B681B68D1
:1014B000194A93422BD100233B61184B1B6C174AEE
:1014C00043F400331364154B1B6C03F400333B618E
:1014D0003B690023FB60114B1B6B104A43F0010377
:1014E00013630E4B1B6B03F00103FB60FB680C23C3
:1014F0007B610223BB610023FB6103233B62072363
:101500007B6207F114031946054800F0FFF900BF9C
:101510002837BD4680BD00BF00440040003802406F
:101520000000024080B400AFFEE780B400AFFEE7E9
:1015300080B400AFFEE780B400AFFEE780B400AF38
:10154000FEE780B400AF00BFBD465DF8047B704786
:1015500080B400AF00BFBD465DF8047B704780B427
:1015600000AF00BFBD465DF8047B704780B500AF9B
:1015700000F0C6F800BF80BD80B586B000AF7860CF
:10158000144A154BD31A7B617B693B61134B1B6873
:10159000002B02D1114B124A1A60104B1A687B685B
:1015A00013443A699A4207D202F07EFA03460C22AB
:1015B0001A604FF0FF3309E0084B1B68FB60074BD4
:1015C0001A687B681344054A1360FB68184618378D
:1015D000BD4680BD00800120000400008C0000207A
:1015E000C801002080B400AF064BD3F88830054A0C
:1015F00043F47003C2F8883000BFBD465DF8047B39
:10160000704700BF00ED00E0DFF834D00D480E4910
:101610000E4A002302E0D458C4500433C4188C424C
:10162000F9D30B4A0B4C002301E013600432A242B1
:10163000FBD3FFF7D7FF02F03DFAFFF749FB7047F6
:10164000008001200000002070000020F04300080E
:1016500070000020C8010020FEE7000080B500AF48
:101660000E4B1B680D4A43F4007313600B4B1B6851
:101670000A4A43F480631360084B1B68074A43F42B
:1016800080731360032000F00DF9002000F008F8CB
:10169000FFF720FE0023184680BD00BF003C02403B
:1016A00080B582B000AF7860124B1A68124B1B787D
:1016B00019464FF47A73B3FBF1F3B2FBF3F3184618
:1016C00000F017F90346002B01D001230EE07B68E0
:1016D0000F2B0AD8002279684FF0FF3000F0EDF8A8
:1016E000064A7B681360002300E001231846083790
:1016F000BD4680BD0000002008000020040000203E
:1017000080B400AF064B1B781A46064B1B68134487
:10171000044A136000BFBD465DF8047B704700BFFC
:1017200008000020B401002080B400AF034B1B6808
:101730001846BD465DF8047B704700BFB401002029
:1017400080B485B000AF78607B6803F00703FB606E
:101750000C4BDB68BB60BA684FF6FF031340BB60FD
:10176000FB681A02BB68134343F0BF6343F40033C2
:10177000BB60044ABB68D36000BF1437BD465DF848
:10178000047B704700ED00E080B400AF044BDB68E1
:101790001B0A03F007031846BD465DF8047B70473B
:1017A00000ED00E080B483B000AF03463960FB7108
:1017B00097F90730002B0ADB3B68DAB20C4997F93E
:1017C00007301201D2B20B4483F800230AE03B68D1
:1017D000DAB20849FB7903F00F03043B1201D2B2DD
:1017E0000B441A7600BF0C37BD465DF8047B70478A
:1017F00000E100E000ED00E080B489B000AFF860E7
:10180000B9607A60FB6803F00703FB61FB69C3F111
:101810000703042B28BF0423BB61FB690433062B99
:1018200002D9FB69033B00E000237B614FF0FF32EC
:10183000BB6902FA03F3DA43BB681A407B699A403A
:101840004FF0FF317B6901FA03F3D9437B680B400A
:10185000134318462437BD465DF8047B70470000EB
:1018600080B582B000AF78607B68013BB3F1807FC8
:1018700001D301230FE00A4A7B68013B53600F212B
:101880004FF0FF30FFF78EFF054B00229A60044BAC
:1018900007221A60002318460837BD4680BD00BFE6
:1018A00010E000E080B582B000AF78607868FFF7A4
:1018B00047FF00BF0837BD4680BD80B586B000AF8A
:1018C0000346B9607A60FB7300237B61FFF75CFF1E
:1018D00078617A68B9687869FFF78EFF024697F9F0
:1018E0000F3011461846FFF75DFF00BF1837BD46A1
:1018F00080BD80B582B000AF78607868FFF7B0FF38
:10190000034618460837BD4680BD000080B489B044
:1019100000AF7860396000237B6100233B610023C6
:10192000BB610023FB6159E10122FB6902FA03F369
:101930007B613B681B687A6913403B613A697B694C
:101940009A4240F048813B685B6803F00303012B37
:1019500005D03B685B6803F00303022B30D17B6842
:101960009B68BB61FB695B00032202FA03F3DB4364
:10197000BA691340BB613B68DA68FB695B0002FA35
:1019800003F3BA691343BB617B68BA699A607B68E9
:101990005B68BB610122FB6902FA03F3DB43BA69AE
:1019A0001340BB613B685B681B0903F00102FB69E4
:1019B00002FA03F3BA691343BB617B68BA695A60E0
:1019C0003B685B6803F00303032B17D07B68DB687D
:1019D000BB61FB695B00032202FA03F3DB43BA69D4
:1019E0001340BB613B689A68FB695B0002FA03F332
:1019F000BA691343BB617B68BA69DA603B685B68AC
:101A000003F00303022B23D1FB69DA087B68083259
:101A100053F82230BB61FB6903F007039B000F22E0
:101A200002FA03F3DB43BA691340BB613B681A69EE
:101A3000FB6903F007039B0002FA03F3BA6913433F
:101A4000BB61FB69DA087B680832B96943F8221088
:101A50007B681B68BB61FB695B00032202FA03F32E
:101A6000DB43BA691340BB613B685B6803F0030268
:101A7000FB695B0002FA03F3BA691343BB617B683D
:101A8000BA691A603B685B6803F08053002B00F072
:101A9000A2800023FB60574B5B6C564A43F48043A3
:101AA0005364544B5B6C03F48043FB60FB68524A05
:101AB000FB699B08023352F82330BB61FB6903F0DA
:101AC00003039B000F2202FA03F3DB43BA691340BE
:101AD000BB617B68494A934219D07B68484A93426C
:101AE00013D07B68474A93420DD07B68464A9342A5
:101AF00007D07B68454A934201D1042308E00723BD
:101B000006E0032304E0022302E0012300E00023B7
:101B1000FA6902F0030292009340BA691343BB6171
:101B20003549FB699B080233BA6941F82320384BD9
:101B30001B68BB613B69DB43BA691340BB613B680F
:101B40005B6803F48033002B03D0BA693B6913430D
:101B5000BB612F4ABB6913602D4B5B68BB613B695E
:101B6000DB43BA691340BB613B685B6803F4003335
:101B7000002B03D0BA693B691343BB61244ABB699C
:101B80005360234B9B68BB613B69DB43BA691340DD
:101B9000BB613B685B6803F48013002B03D0BA6918
:101BA0003B691343BB611A4ABB699360184BDB68FE
:101BB000BB613B69DB43BA691340BB613B685B684F
:101BC00003F40013002B03D0BA693B691343BB61D4
:101BD0000F4ABB69D360FB690133FB61FB690F2BC3
:101BE0007FF6A2AE00BF00BF2437BD465DF8047B80
:101BF000704700BF0038024000380140000002403A
:101C00000004024000080240000C024000100240A4
:101C1000003C014080B483B000AF78600B467B800D
:101C200013467B707B78002B03D07A887B689A619F
:101C300003E07B881A047B689A6100BF0C37BD46BD
:101C40005DF8047B7047000080B586B000AF786017
:101C50007B68002B01D1012364E27B681B6803F0E1
:101C60000103002B75D0A34B9B6803F00C03042BDE
:101C70000CD0A04B9B6803F00C03082B12D19D4B9A
:101C80005B6803F48003B3F5800F0BD1994B1B689D
:101C900003F40033002B5BD07B685B68002B57D1CB
:101CA00001233FE27B685B68B3F5803F06D1914B2F
:101CB0001B68904A43F4803313601DE07B685B68C7
:101CC000B3F5A02F0CD18B4B1B688A4A43F48023B9
:101CD0001360884B1B68874A43F4803313600BE022
:101CE000844B1B68834A23F480331360814B1B6849
:101CF000804A23F4802313607B685B68002B13D039
:101D0000FFF712FD386108E0FFF70EFD02463B6960
:101D1000D31A642B01D9032304E2764B1B6803F426
:101D20000033002BF0D014E0FFF7FEFC386108E030
:101D3000FFF7FAFC02463B69D31A642B01D903234F
:101D4000F0E16C4B1B6803F40033002BF0D100E092
:101D500000BF7B681B6803F00203002B63D0654B58
:101D60009B6803F00C03002B0BD0624B9B6803F0C5
:101D70000C03082B1CD15F4B5B6803F48003002B22
:101D800016D15C4B1B6803F00203002B05D07B6867
:101D9000DB68012B01D00123C4E1564B1B6823F003
:101DA000F8027B681B69DB00524913430B603AE081
:101DB0007B68DB68002B20D04F4B01221A60FFF7B5
:101DC000B3FC386108E0FFF7AFFC02463B69D31A69
:101DD000022B01D90323A5E1464B1B6803F0020344
:101DE000002BF0D0434B1B6823F0F8027B681B6983
:101DF000DB00404913430B6015E03F4B00221A60A3
:101E0000FFF792FC386108E0FFF78EFC02463B6961
:101E1000D31A022B01D9032384E1364B1B6803F04C
:101E20000203002BF0D17B681B6803F00803002B32
:101E300030D07B685B69002B16D0304B01221A60D2
:101E4000FFF772FC386108E0FFF76EFC02463B6961
:101E5000D31A022B01D9032364E1264B5B6F03F0F5
:101E60000203002BF0D015E0244B00221A60FFF78C
:101E70005BFC386108E0FFF757FC02463B69D31A68
:101E8000022B01D903234DE11A4B5B6F03F00203D0
:101E9000002BF0D17B681B6803F00403002B00F0DB
:101EA000A0800023FB75134B1B6C03F08053002BA9
:101EB0000FD10023BB600F4B1B6C0E4A43F08053C5
:101EC00013640C4B1B6C03F08053BB60BB68012395
:101ED000FB750B4B1B6803F48073002B21D1084B5F
:101EE0001B68074A43F480731360FFF71DFC3861D9
:101EF00011E000BF0038024000004742800E474218
:101F000000700040FFF710FC02463B69D31A022B19
:101F100001D9032306E1854B1B6803F48073002B72
:101F2000F0D07B689B68012B06D1814B1B6F804AE8
:101F300043F0010313671CE07B689B68052B0CD101
:101F40007B4B1B6F7A4A43F004031367784B1B6F7C
:101F5000774A43F0010313670BE0754B1B6F744A1C
:101F600023F001031367724B1B6F714A23F00403C4
:101F700013677B689B68002B15D0FFF7D5FB386192
:101F80000AE0FFF7D1FB02463B69D31A41F28832DF
:101F9000934201D90323C5E0654B1B6F03F0020395
:101FA000002BEED014E0FFF7BFFB38610AE0FFF72B
:101FB000BBFB02463B69D31A41F28832934201D9F6
:101FC0000323AFE05A4B1B6F03F00203002BEED14B
:101FD000FB7D012B05D1564B1B6C554A23F08053DA
:101FE00013647B689B69002B00F09B80504B9B68BF
:101FF00003F00C03082B5CD07B689B69022B41D15A
:102000004C4B00221A60FFF78FFB386108E0FFF7A6
:102010008BFB02463B69D31A022B01D9032381E0D3
:10202000434B1B6803F00073002BF0D17B68DA6927
:102030007B681B6A1A437B685B6A9B011A437B6857
:102040009B6A5B08013B1B041A437B68DB6A1B0627
:10205000374913434B60374B01221A60FFF764FB8B
:10206000386108E0FFF760FB02463B69D31A022B98
:1020700001D9032356E02E4B1B6803F00073002B9D
:10208000F0D04EE02B4B00221A60FFF74DFB386179
:1020900008E0FFF749FB02463B69D31A022B01D93E
:1020A00003233FE0224B1B6803F00073002BF0D1A9
:1020B00037E07B689B69012B01D1012332E01C4B87
:1020C0005B68FB607B689B69012B28D0FB6803F48D
:1020D00080027B68DB699A4221D1FB6803F03F02F2
:1020E0007B681B6A9A421AD1FA6847F6C07313409C
:1020F0007A68526A9201934211D1FB6803F440322C
:102100007B689B6A5B08013B1B049A4207D1FB6812
:1021100003F070627B68DB6A1B069A4201D00123E0
:1021200000E0002318461837BD4680BD007000400F
:10213000003802406000474280B584B000AF78604C
:1021400039607B68002B01D10123CCE0684B1B6810
:1021500003F007033A689A420CD9654B3A68D2B249
:102160001A70634B1B6803F007033A689A4201D068
:102170000123B8E07B681B6803F00203002B20D02A
:102180007B681B6803F00403002B05D0594B9B6848
:10219000584A43F4E05393607B681B6803F00803DC
:1021A000002B05D0534B9B68524A43F46043936025
:1021B000504B9B6823F0F0027B689B684D491343AA
:1021C0008B607B681B6803F00103002B44D07B68A5
:1021D0005B68012B07D1474B1B6803F40033002BCE
:1021E00019D101237FE07B685B68022B03D07B68F9
:1021F0005B68032B07D13F4B1B6803F00073002B78
:1022000009D101236FE03B4B1B6803F00203002B55
:1022100001D1012367E0374B9B6823F003027B6801
:102220005B68344913438B60FFF77EFAF8600AE07D
:10223000FFF77AFA0246FB68D31A41F288329342DA
:1022400001D903234FE02B4B9B6803F00C027B6802
:102250005B689B009A42EBD1254B1B6803F0070398
:102260003A689A420CD2224B3A68D2B21A70204B8A
:102270001B6803F007033A689A4201D0012332E059
:102280007B681B6803F00403002B08D0194B9B6884
:1022900023F4E0527B68DB68164913438B607B684C
:1022A0001B6803F00803002B09D0124B9B6823F432
:1022B00060427B681B69DB000E4913438B6000F0B2
:1022C00021F802460B4B9B681B0903F00F030A49D8
:1022D000CB5C22FA03F3094A1360094B1B681846CA
:1022E000FFF7DEF9002318461037BD4680BD00BF5A
:1022F000003C0240003802409443000800000020E7
:1023000004000020B0B584B000AF00217960002146
:10231000F960002139600021B9605249896801F0F3
:102320000C0108290DD0082900F29480002902D060
:10233000042903D08EE04C4BBB608EE04B4BBB605E
:102340008BE04849496801F03F0179604549496897
:1023500001F48001002924D04249496889090846CE
:102360004FF0000140F2FF144FF0000500EA0402B4
:1023700001EA05033D4901FB03F0002101FB02F1E5
:1023800044183A49A2FB0101631819467B681A46B2
:102390004FF00003FEF7AAFA02460B461346FB6015
:1023A0004AE0304B5B689B091A464FF0000340F24D
:1023B000FF104FF0000102EA000403EA0105204685
:1023C00029464FF000024FF000034B0143EAD0636F
:1023D000420110461946001B61EB05014FF0000257
:1023E0004FF000038B0143EA90638201121A63EB02
:1023F00001034FF000004FF00001D90041EA527193
:10240000D00002460B46121945EB03034FF00000C3
:102410004FF00001990241EA9251900202460B46A8
:10242000104619467B681A464FF00003FEF75EFA25
:1024300002460B461346FB600A4B5B681B0C03F01D
:10244000030301335B003B60FA683B68B2FBF3F3C4
:10245000BB6002E0044BBB6000BFBB68184610378E
:10246000BD46B0BD003802400024F40040787D0134
:1024700080B400AF034B1B681846BD465DF8047B73
:10248000704700BF0000002080B500AFFFF7F0FFED
:102490000246054B9B689B0A03F007030349CB5C8C
:1024A00022FA03F3184680BD00380240A443000816
:1024B00080B500AFFFF7DCFF0246054B9B685B0B66
:1024C00003F007030349CB5C22FA03F3184680BDEF
:1024D00000380240A443000880B582B000AF7860A5
:1024E0007B68002B01D1012341E07B6893F83D30EC
:1024F000DBB2002B06D17B68002283F83C20786891
:10250000FEF710FF7B68022283F83D207B681A6883
:102510007B6804331946104600F048FC7B680122B2
:1025200083F846207B68012283F83E207B680122E5
:1025300083F83F207B68012283F840207B680122DA
:1025400083F841207B68012283F842207B680122C6
:1025500083F843207B68012283F844207B680122B2
:1025600083F845207B68012283F83D20002318462C
:102570000837BD4680BD000080B485B000AF7860EC
:102580007B6893F83D30DBB2012B01D001233CE0A6
:102590007B68022283F83D207B681B681E4A9342B9
:1025A00018D07B681B68B3F1804F13D07B681B6821
:1025B0001A4A93420ED07B681B68194A934209D08D
:1025C0007B681B68174A934204D07B681B68164AD5
:1025D000934211D17B681B689B6803F00703FB6083
:1025E000FB68062B10D07B681B681A687B681B6829
:1025F00042F001021A6007E07B681B681A687B687A
:102600001B6842F001021A60002318461437BD46C9
:102610005DF8047B704700BF0000014000040040EB
:1026200000080040000C00400040014080B582B02E
:1026300000AF78607B68002B01D1012341E07B680B
:1026400093F83D30DBB2002B06D17B68002283F883
:102650003C20786800F039F87B68022283F83D203E
:102660007B681A687B6804331946104600F09EFBAD
:102670007B68012283F846207B68012283F83E2094
:102680007B68012283F83F207B68012283F8402089
:102690007B68012283F841207B68012283F8422075
:1026A0007B68012283F843207B68012283F8442061
:1026B0007B68012283F845207B68012283F83D2056
:1026C000002318460837BD4680BD80B483B000AFF4
:1026D000786000BF0C37BD465DF8047B7047000092
:1026E00080B584B000AF786039603B68002B09D1B9
:1026F0007B6893F83E30DBB2012B14BF012300232B
:10270000DBB222E03B68042B09D17B6893F83F30B1
:10271000DBB2012B14BF01230023DBB215E03B68C1
:10272000082B09D17B6893F84030DBB2012B14BF32
:1027300001230023DBB208E07B6893F84130DBB271
:10274000012B14BF01230023DBB2002B01D0012396
:1027500068E03B68002B04D17B68022283F83E20AE
:1027600013E03B68042B04D17B68022283F83F20EE
:102770000BE03B68082B04D17B68022283F84020E1
:1027800003E07B68022283F841207B681B680122FA
:102790003968184600F0B0FD7B681B68234A9342F5
:1027A00007D17B681B685A6C7B681B6842F4004247
:1027B0005A647B681B681D4A934218D07B681B686B
:1027C000B3F1804F13D07B681B68194A93420ED037
:1027D0007B681B68174A934209D07B681B68164ABE
:1027E000934204D07B681B68144A934211D17B68E2
:1027F0001B689B6803F00703FB60FB68062B10D087
:102800007B681B681A687B681B6842F001021A60CB
:1028100007E07B681B681A687B681B6842F001024E
:102820001A60002318461037BD4680BD00000140E5
:102830000004004000080040000C0040004001403F
:1028400080B586B000AF786039607B68002B01D11D
:10285000012397E07B6893F83D30DBB2002B06D173
:102860007B68002283F83C207868FEF791FD7B6846
:10287000022283F83D207B681B689B687A68126897
:1028800023F4804323F0070393607B681A687B6816
:1028900004331946104600F089FA7B681B689B6870
:1028A0007B617B681B689B693B617B681B681B6A5B
:1028B000FB603B681B687A6913437B613B6923F4C7
:1028C000407323F003033B613B689A683B689B6954
:1028D0001B0213433A6913433B613B6923F4406392
:1028E00023F00C033B613B6923F4704323F0F003B6
:1028F0003B613B68DA683B68DB691B0213433A695A
:1029000013433B613B681B691A013B681B6A1B034D
:1029100013433A6913433B61FB6823F02203FB60D6
:10292000FB6823F08803FB603B685A683B685B697F
:102930001B011343FA681343FB607B681B687A69C9
:102940009A607B681B683A699A617B681B68FA68C1
:102950001A627B68012283F846207B68012283F893
:102960003E207B68012283F83F207B68012283F8A8
:1029700042207B68012283F843207B68012283F890
:102980003D20002318461837BD4680BD80B584B071
:1029900000AF786039607B6893F83E30FB737B68EA
:1029A00093F83F30BB737B6893F842307B737B684E
:1029B00093F843303B733B68002B10D1FB7B012B1A
:1029C00002D17B7B012B01D0012369E07B680222CD
:1029D00083F83E207B68022283F8422031E03B6886
:1029E000042B10D1BB7B012B02D13B7B012B01D0EF
:1029F000012355E07B68022283F83F207B68022296
:102A000083F843201DE0FB7B012B08D1BB7B012B0E
:102A100005D17B7B012B02D13B7B012B01D0012314
:102A20003EE07B68022283F83E207B68022283F826
:102A30003F207B68022283F842207B68022283F8D1
:102A400043203B68002B03D03B68042B08D00FE0E9
:102A50007B681B6801220021184600F04DFC16E03F
:102A60007B681B6801220421184600F045FC0EE03B
:102A70007B681B6801220021184600F03DFC7B6842
:102A80001B6801220421184600F036FC00BF7B6859
:102A90001B681A687B681B6842F001021A600023F9
:102AA00018461037BD4680BD80B584B000AFF860D1
:102AB000B9607A60FB6893F83C30012B01D10223A6
:102AC000ACE0FB68012283F83C207B680C2B00F211
:102AD0009F8001A252F823F00D2B0008112C000852
:102AE000112C0008112C00084D2B0008112C000897
:102AF000112C0008112C00088F2B0008112C000845
:102B0000112C0008112C0008CF2B0008FB681B6853
:102B1000B968184600F0CAF9FB681B689A69FB6837
:102B20001B6842F008029A61FB681B689A69FB689F
:102B30001B6822F004029A61FB681B689969BB68F4
:102B40001A69FB681B680A439A6162E0FB681B68AC
:102B5000B968184600F010FAFB681B689A69FB68B0
:102B60001B6842F400629A61FB681B689A69FB6803
:102B70001B6822F480629A61FB681B689969BB68D4
:102B80001B691A02FB681B680A439A6141E0FB68F3
:102B90001B68B968184600F05BFAFB681B68DA69C5
:102BA000FB681B6842F00802DA61FB681B68DA699F
:102BB000FB681B6822F00402DA61FB681B68D969B4
:102BC000BB681A69FB681B680A43DA6121E0FB688D
:102BD0001B68B968184600F0A5FAFB681B68DA693B
:102BE000FB681B6842F40062DA61FB681B68DA6903
:102BF000FB681B6822F48062DA61FB681B68D96994
:102C0000BB681B691A02FB681B680A43DA6100E0B3
:102C100000BFFB68002283F83C20002318461037D1
:102C2000BD4680BD80B584B000AF786039607B68F8
:102C300093F83C30012B01D10223B3E07B680122E1
:102C400083F83C207B68022283F83D207B681B6868
:102C50009B68FB60FB6823F07703FB60FB6823F451
:102C60007F43FB607B681B68FA689A603B681B685F
:102C7000B3F5005F3ED0B3F5005F00F28780B3F597
:102C8000805F00F08580B3F5805F7FD8702B1AD00D
:102C9000702B7BD8602B50D0602B77D8502B3CD03A
:102CA000502B73D8402B58D0402B6FD8302B64D08A
:102CB000302B6BD8202B60D0202B67D8002B5CD01A
:102CC000102B5AD062E07B6818683B6899683B68B3
:102CD0005A683B68DB6800F0EFFA7B681B689B680A
:102CE000FB60FB6843F07703FB607B681B68FA6856
:102CF0009A604EE07B6818683B6899683B685A6840
:102D00003B68DB6800F0D8FA7B681B689A687B68D0
:102D10001B6842F480429A603BE07B6818683B681D
:102D200059683B68DB681A4600F04CFA7B681B6800
:102D30005021184600F0A5FA2BE07B6818683B6824
:102D400059683B68DB681A4600F06BFA7B681B68C1
:102D50006021184600F095FA1BE07B6818683B6814
:102D600059683B68DB681A4600F02CFA7B681B68E0
:102D70004021184600F085FA0BE07B681A683B6832
:102D80001B681946104600F07CFA02E000BF00E024
:102D900000BF7B68012283F83D207B68002283F816
:102DA0003C20002318461037BD4680BD80B485B056
:102DB00000AF786039607B681B68FB607B68344AD1
:102DC00093420FD07B68B3F1804F0BD07B68314AC0
:102DD000934207D07B68304A934203D07B682F4AE6
:102DE000934208D1FB6823F07003FB603B685B688B
:102DF000FA681343FB607B68254A93421BD07B68CB
:102E0000B3F1804F17D07B68224A934213D07B687E
:102E1000214A93420FD07B68204A93420BD07B68B3
:102E20001F4A934207D07B681E4A934203D07B68B7
:102E30001D4A934208D1FB6823F44073FB603B6852
:102E4000DB68FA681343FB60FB6823F080023B6891
:102E50005B691343FB607B68FA681A603B689A6899
:102E60007B68DA623B681A687B689A627B68084A0A
:102E7000934203D13B681A697B681A637B6801221D
:102E80005A6100BF1437BD465DF8047B704700BF30
:102E9000000001400004004000080040000C004019
:102EA00000400140004401400048014080B487B028
:102EB00000AF786039607B681B6A23F001027B6891
:102EC0001A627B681B6A7B617B685B683B617B681D
:102ED0009B69FB60FB6823F07003FB60FB6823F0D9
:102EE0000303FB603B681B68FA681343FB607B6964
:102EF00023F002037B613B689B687A6913437B6123
:102F00007B681C4A93420CD17B6923F008037B61E8
:102F10003B68DB687A6913437B617B6923F00403B8
:102F20007B617B68134A934211D13B6923F4807320
:102F30003B613B6923F400733B613B685B693A6921
:102F400013433B613B689B693A6913433B617B6870
:102F50003A695A607B68FA689A613B685A687B688C
:102F60005A637B687A691A6200BF1C37BD465DF8F8
:102F7000047B70470000014080B487B000AF7860E8
:102F800039607B681B6A23F010027B681A627B68D9
:102F90001B6A7B617B685B683B617B689B69FB604C
:102FA000FB6823F4E043FB60FB6823F44073FB60A1
:102FB0003B681B681B02FA681343FB607B6923F0C4
:102FC00020037B613B689B681B017A6913437B612B
:102FD0007B681E4A93420DD17B6923F080037B619D
:102FE0003B68DB681B017A6913437B617B6923F0D3
:102FF00040037B617B68154A934213D13B6923F4FC
:1030000080633B613B6923F400633B613B685B6920
:103010009B003A6913433B613B689B699B003A699B
:1030200013433B617B683A695A607B68FA689A612E
:103030003B685A687B689A637B687A691A6200BF4A
:103040001C37BD465DF8047B704700BF000001409F
:1030500080B487B000AF786039607B681B6A23F466
:1030600080727B681A627B681B6A7B617B685B6825
:103070003B617B68DB69FB60FB6823F07003FB60EE
:10308000FB6823F00303FB603B681B68FA6813438B
:10309000FB607B6923F400737B613B689B681B02C8
:1030A0007A6913437B617B681D4A93420DD17B692A
:1030B00023F400637B613B68DB681B027A6913437E
:1030C0007B617B6923F480637B617B68144A934254
:1030D00013D13B6923F480533B613B6923F40053D4
:1030E0003B613B685B691B013A6913433B613B6889
:1030F0009B691B013A6913433B617B683A695A60DB
:103100007B68FA68DA613B685A687B68DA637B68D7
:103110007A691A6200BF1C37BD465DF8047B7047B0
:103120000000014080B487B000AF786039607B68F0
:103130001B6A23F480527B681A627B681B6A3B61BE
:103140007B685B687B617B68DB69FB60FB6823F401
:10315000E043FB60FB6823F44073FB603B681B6843
:103160001B02FA681343FB603B6923F400533B6185
:103170003B689B681B033A6913433B617B68104AB9
:10318000934209D17B6923F480437B613B685B698F
:103190009B017A6913437B617B687A695A607B681B
:1031A000FA68DA613B685A687B681A647B683A6936
:1031B0001A6200BF1C37BD465DF8047B704700BF34
:1031C0000000014080B487B000AFF860B9607A6059
:1031D000FB681B6A7B61FB681B6A23F00102FB68CA
:1031E0001A62FB689B693B613B6923F0F0033B611A
:1031F0007B681B013A6913433B617B6923F00A0337
:103200007B617A69BB6813437B61FB683A699A61A9
:10321000FB687A691A6200BF1C37BD465DF8047B03
:10322000704780B487B000AFF860B9607A60FB681F
:103230001B6A23F01002FB681A62FB689B697B61C2
:10324000FB681B6A3B617B6923F470437B617B688D
:103250001B037A6913437B613B6923F0A0033B6145
:10326000BB681B013A6913433B61FB687A699A6149
:10327000FB683A691A6200BF1C37BD465DF8047BE3
:10328000704780B485B000AF786039607B689B6818
:10329000FB60FB6823F07003FB603A68FB68134334
:1032A00043F00703FB607B68FA689A6000BF14373D
:1032B000BD465DF8047B704780B487B000AFF8600E
:1032C000B9607A603B60FB689B687B617B6923F433
:1032D0007F437B613B681A027B681A43BB681343D8
:1032E0007A6913437B61FB687A699A6000BF1C3777
:1032F000BD465DF8047B704780B487B000AFF860CE
:10330000B9607A60BB6803F01F03012202FA03F37D
:103310007B61FB681A6A7B69DB431A40FB681A62AF
:10332000FB681A6ABB6803F01F03796801FA03F3AC
:103330001A43FB681A6200BF1C37BD465DF8047B68
:103340007047000080B485B000AF786039607B685A
:1033500093F83C30012B01D1022350E07B6801221D
:1033600083F83C207B68022283F83D207B681B6841
:103370005B68FB607B681B689B68BB60FB6823F035
:103380007003FB603B681B68FA681343FB607B6853
:103390001B68FA685A607B681B681C4A934218D005
:1033A0007B681B68B3F1804F13D07B681B68184A99
:1033B00093420ED07B681B68164A934209D07B6803
:1033C0001B68154A934204D07B681B68134A9342DA
:1033D0000CD1BB6823F08003BB603B685B68BA68B4
:1033E0001343BB607B681B68BA689A607B680122E4
:1033F00083F83D207B68002283F83C200023184698
:103400001437BD465DF8047B704700BF00000140E3
:103410000004004000080040000C00400040014053
:1034200080B485B000AF786039600023FB607B68B2
:1034300093F83C30012B01D102233DE07B6801224F
:1034400083F83C20FB6823F0FF023B68DB681343F2
:10345000FB60FB6823F440723B689B681343FB608E
:10346000FB6823F480623B685B681343FB60FB6886
:1034700023F400623B681B681343FB60FB6823F482
:1034800080523B681B691343FB60FB6823F40052C6
:103490003B685B691343FB60FB6823F480423B6835
:1034A000DB691343FB607B681B68FA685A647B68BE
:1034B000002283F83C20002318461437BD465DF8EF
:1034C000047B704780B582B000AF78607B68002BCA
:1034D00001D101233FE07B6893F83D30DBB2002B44
:1034E00006D17B68002283F83C207868FDF7D2FF84
:1034F0007B68242283F83D207B681B68DA687B6840
:103500001B6822F40052DA60786800F005F97B68E5
:103510001B681A697B681B6822F490421A617B68F9
:103520001B685A697B681B6822F02A025A617B6813
:103530001B68DA687B681B6842F40052DA607B68BB
:1035400000221A647B68202283F83D207B682022B9
:1035500083F83E20002318460837BD4680BD80B55D
:103560008AB002AFF860B9603B601346FB8000236D
:103570007B61FB6893F83D30DBB2202B7CD1BB68CC
:10358000002B02D0FB88002B01D1012375E0FB68E2
:1035900093F83C30012B01D102236EE0FB6801223D
:1035A00083F83C20FB6800221A64FB68212283F820
:1035B0003D20FEF7B9F87861FB68FA889A84FB68C9
:1035C000FA88DA84FB689B68B3F5805F08D1FB68F2
:1035D0001B69002B04D10023FB61BB68BB6103E0C6
:1035E000BB68FB610023BB61FB68002283F83C20C1
:1035F0002AE03B6800937B6900228021F86800F094
:1036000040F80346002B01D0032336E0FB69002B72
:103610000BD1BB691B881A46FB681B68C2F3080202
:103620005A60BB690233BB6107E0FB691A78FB682B
:103630001B685A60FB690133FB61FB68DB8C9BB242
:10364000013B9AB2FB68DA84FB68DB8C9BB2002BEF
:10365000CFD13B6800937B6900224021F86800F0DD
:1036600010F80346002B01D0032306E0FB6820225C
:1036700083F83D20002300E0022318462037BD4692
:1036800080BD80B584B000AFF860B9603B60134680
:10369000FB712CE0BB69B3F1FF3F28D0BB69002B65
:1036A00007D0FEF741F802463B68D31ABA699A423E
:1036B0001DD2FB681B68DA68FB681B6822F4D072B5
:1036C000DA60FB681B685A69FB681B6822F001021C
:1036D0005A61FB68202283F83D20FB68202283F892
:1036E0003E20FB68002283F83C2003230FE0FB68A8
:1036F0001B681A68BB681340BA689A420CBF012362
:103700000023DBB21A46FB799A42C3D00023184645
:103710001037BD4680BD00002DE9F04F9FB000AFCF
:10372000F866FB6E1B681B6923F44050FB6ED9687A
:10373000FB6E1A6840EA01031361FB6E9A68FB6E28
:103740001B691A43FB6E5B691A43FB6EDB6913430B
:103750003B67FB6E1B68DB6823F4164121F00C010C
:10376000FB6E1A683B6F0B43D360FB6E1B685B6993
:1037700023F44070FB6E9969FB6E1A6840EA0103FE
:103780005361FB6E1A68C54B9A4204D0FB6E1A68EF
:10379000C34B9A4203D1FEF78BFE786702E0FEF737
:1037A00073FE7867FB6EDB69B3F5004F40F0B680BF
:1037B0007B6F1C464FF0000522462B46911839645A
:1037C0005B417B64D7E91023121945EB03034FF0EB
:1037D00000004FF00001D90041EA5271D0000246CA
:1037E0000B46111939666B417B66FB6E5B681A46A6
:1037F0004FF000039118B9635B41FB63D7E90E23D7
:10380000D7E91801FDF772F802460B46A54BA3FB5A
:1038100002235B091E017B6F1C464FF00005224608
:103820002B46911839635B417B63D7E90C2312194E
:1038300045EB03034FF000004FF00001D90041EACF
:103840005271D00002460B461119B9656B41FB65F8
:10385000FB6E5B681A464FF000039118B9625B413A
:10386000FB62D7E90A23D7E91601FDF73FF80246C4
:103870000B468C4BA3FB02135B09642101FB03F392
:10388000D31ADB003233874AA2FB03235B095B00B8
:1038900003F4F8731E447B6F18464FF00001024694
:1038A0000B4694183C625B417B62D7E908231218EF
:1038B00041EB03034FF000044FF00005DD0045EA43
:1038C0005275D40022462B4614183C654B417B654B
:1038D000FB6E5B681A464FF000039118B9615B41BB
:1038E000FB61D7E90623D7E91401FCF7FFFF024685
:1038F0000B466C4BA3FB02135B09642101FB03F332
:10390000D31ADB003233674AA2FB03235B0903F0BF
:103910000702FB6E1B6832449A60B9E07B6F1C465D
:103920004FF0000522462B46911839615B417B61BF
:10393000D7E90423121945EB03034FF000004FF0C1
:103940000001D90041EA5271D00002460B4612EB49
:10395000040843EB0509FB6E5B6818464FF0000155
:103960004FF000024FF000038B0043EA9073820097
:1039700040464946FCF7BAFF02460B46494BA3FBBB
:1039800002235B091E017B6F18464FF000010246BF
:103990000B469418BC605B41FB60D7E90223121808
:1039A00041EB03034FF000044FF00005DD0045EA52
:1039B0005275D40022462B461418BC644B41FB645C
:1039C000FB6E5B6818464FF000014FF000024FF0AD
:1039D00000038B0043EA90738200D7E91201FCF7E1
:1039E00085FF02460B462F4BA3FB02135B096421A4
:1039F00001FB03F3D31A1B0132332A4AA2FB032330
:103A00005B0903F0F0031E447B6F18464FF0000182
:103A100002460B4694183C605B417B60D7E900236B
:103A2000121841EB03034FF000044FF00005DD00D6
:103A300045EA5275D40022462B4612EB000A43EBAE
:103A4000010BFB6E5B6818464FF000014FF000025F
:103A50004FF000038B0043EA9073820050465946B2
:103A6000FCF744FF02460B460E4BA3FB02135B0917
:103A7000642101FB03F3D31A1B013233094AA2FB71
:103A800003235B0903F00F02FB6E1B6832449A604C
:103A900000BF7C37BD46BDE8F08F00BF001001407D
:103AA000001401401F85EB51014B1868704700BF9F
:103AB0000C00002070B50D4D0D4C641BA4100026A9
:103AC000A64209D10B4D0C4C00F04EFC641BA41017
:103AD0000026A64205D170BD55F8043B9847013633
:103AE000EEE755F8043B98470136F2E7E843000853
:103AF000E8430008E8430008EC430008024403469A
:103B0000934200D1704703F8011BF9E70EB400B5EA
:103B10009CB01DAB029006906FF0004109480791E0
:103B20000491094953F8042B05910068019302A9F7
:103B300000F068F8029B00221A701CB05DF804EBDC
:103B400003B070470C0000200802FFFF2DE9F0478A
:103B50008E689E4282460C4690461F4638D88A8917
:103B600012F4906F32D025680969A5EB01096569E7
:103B700005EB450505EBD57501334B446D109D42B2
:103B800038BF1D46530531D5294600F047FB064690
:103B900050B90C23CAF80030A38943F04003A38135
:103BA0004FF0FF30BDE8F08721694A4600F0BEFAC9
:103BB000A38923F4906343F08003A38126616561A8
:103BC0004E44A5EB09052660A5603E46BE4200D9DD
:103BD0003E4632462068414600F0B6FAA3682268A5
:103BE0009B1B3244A36022600020DBE72A4600F0E2
:103BF0006FFB06460028E1D12169504600F0BEFA6D
:103C0000C7E700002DE9F04F98468B891B069DB051
:103C100007460D4614460ED50B6963B9402100F0E6
:103C2000FDFA2860286120B90C233B604FF0FF307B
:103C3000D1E040236B610023099320238DF82930C4
:103C4000CDF80C803023DFF8A8818DF82A304FF0B2
:103C5000010923469A4613F8012B0AB1252AF9D106
:103C6000BAEB040B0BD05B46224629463846FFF7D9
:103C70006DFF013000F0AA80099A5A4409929AF81F
:103C80000030002B00F0A28000234FF0FF32CDE97E
:103C900005230AF1010A049307938DF853301A9310
:103CA0005446052214F8011B5148FCF799FA049A6E
:103CB000D8B9D00644BF20238DF85330110744BF34
:103CC0002B238DF853309AF800302A2B15D0079A01
:103CD000544600204FF00A0C214611F8013B303BBE
:103CE000092B4ED9B0B1079214E0A0EB080309FAF2
:103CF00003F313430493A246D2E7039B191D1B68E9
:103D00000391002BBBBF5B4242F002020793079373
:103D1000B8BF049223782E2B0CD163782A2B35D18F
:103D2000039B1A1D1B680392002BB8BF4FF0FF3393
:103D300002340593DFF8C8A0217803225046FCF72F
:103D40004FFA40B14023A0EB0A0003FA00F0049BB5
:103D500003430134049314F8011B26488DF82810FE
:103D60000622FCF73DFA002838D0234B1BBB039BEF
:103D7000073323F0070308330393099B3344099364
:103D800067E70CFB02320C460120A5E70023013453
:103D9000059319464FF00A0C204610F8012B303AD3
:103DA000092A03D9002BC5D00591C3E70CFB0121DB
:103DB00004460123F0E703AB00932A460F4B04A906
:103DC0003846AFF30080421C0646D6D1AB895B066D
:103DD0003FF52CAF09981DB0BDE8F08F03AB009301
:103DE0002A46064B04A9384600F07AF8EBE700BFF4
:103DF000AC430008B6430008000000004D3B00083B
:103E0000B24300082DE9F047164699468A680B69C7
:103E1000DDF820809342B8BF1346336091F8432009
:103E200007460C460AB1013333602368990642BF46
:103E3000336802333360256815F0060506D104F1B6
:103E4000190AE36832689B1AAB4226DC94F84320D7
:103E5000131E226818BF012392062BD404F14302DB
:103E600049463846C04701301ED02368E5683268AD
:103E700003F00603042B08BFAD1AA36822690CBF28
:103E800025EAE57500259342C4BF9B1AED1800266C
:103E90001A34B5421AD1002008E00123524649469F
:103EA0003846C047013003D14FF0FF30BDE8F087FE
:103EB0000135C6E7E1185A1C302081F8430022443E
:103EC00094F8451082F843100233C7E701232246D5
:103ED00049463846C0470130E6D00136D9E70000F0
:103EE0002DE9FF470C469146277E0C99782F804696
:103EF0009A4604F1430207D8622F0AD8002F00F037
:103F0000D880582F00F0A38004F1420684F8427054
:103F10003AE0A7F16303152BF6D801A050F823F07F
:103F2000793F00088D3F0008093F0008093F00085D
:103F3000093F0008093F00088D3F0008093F0008BD
:103F4000093F0008093F0008093F000899400008A0
:103F5000BD3F00087B400008093F0008093F0008FA
:103F6000BB400008093F0008BD3F0008093F0008AA
:103F7000093F0008834000080B681A1D1B680A608F
:103F800004F1420684F842300123A3E02568086862
:103F90002E0600F104030AD505680B60002D03DA34
:103FA0002D236D4284F843305E480A2319E015F052
:103FB000400F05680B6018BF2DB2EFE70B6825684E
:103FC000181D0860280601D51D6802E06906FBD5AA
:103FD0001D8854486F2F0CBF08230A23002184F842
:103FE00043106668A660002EA2BF216821F004017C
:103FF00021600DB9002E4DD01646B5FBF3F103FB41
:104000001157C75D06F8017D2F46BB420D46F4D916
:10401000082B0BD12368DF0708D523696168994213
:10402000DEBF302306F8013C06F1FF36921B226109
:10403000CDF800A04B4603AA21464046FFF7E2FE1A
:1040400001304CD14FF0FF3004B0BDE8F087354867
:1040500084F8457023680E681F0656F8045B0E60EE
:1040600014D5D90744BF43F0200323601DB923684A
:1040700023F0200323601023B0E7236843F02003DC
:1040800023607823284884F84530E3E75E0648BF7C
:10409000ADB2E6E71646BBE70B68266860691D1DF2
:1040A0000D6035061B6801D5186002E07106FBD56E
:1040B0001880002323611646BAE70B681A1D0A60B0
:1040C0001E68626800213046FCF78AF808B1801B40
:1040D000606063682361002384F84330A8E72369A4
:1040E000324649464046D0470130ABD023689B0753
:1040F00013D4E068039B9842B8BF1846A4E7012395
:10410000324649464046D04701309BD00135E368EE
:1041100003995B1AAB42F2DCEBE7002504F11906C8
:10412000F5E700BFBD430008CE4300080A449142B2
:1041300000F1FF3300D1704710B511F8014B03F8BF
:10414000014F9142F9D110BD884210B501EB020434
:1041500002D98442234607D8431EA14208D011F851
:10416000012B03F8012FF8E7024401468A4200D1EF
:1041700010BD13F8014D02F8014DF7E737B50029DE
:1041800048D051F8043C0190002BA1F10404B8BFC1
:10419000E41800F0D3F8204A01981368154633B9A3
:1041A0006360146003B0BDE8304000F0CDB8A342B6
:1041B0000BD921686218934204BF1A685B68636078
:1041C00004BF521822602C60ECE71A465B680BB102
:1041D000A342FAD911685518A5420BD1246821448D
:1041E0005418A3421160DDD11C685B685360214400
:1041F0001160D7E702D90C230360D3E72568611962
:104200008B4204BF19685B68636004BF4919216071
:104210005460C7E703B030BD90000020F8B5CD1C56
:1042200025F0030508350C2D38BF0C25002D06465A
:1042300001DBA94203D90C2333600020F8BD00F054
:104240007DF821490A6814469CB9204F3B6823B980
:104250002146304600F062F838602946304600F0CA
:104260005DF8431C23D10C233360304600F06CF81A
:10427000E3E723685B1B17D40B2B03D923601C4493
:10428000256004E06368A2420CBF0B6053603046B7
:1042900000F05AF804F10B00231D20F00700C21AA9
:1042A000CCD01B1AA350C9E722466468CCE7C41CD3
:1042B00024F00304A042E3D0211A304600F02EF887
:1042C0000130DDD1CFE700BF900000209400002036
:1042D000F8B5074614460E4621B9BDE8F840114628
:1042E000FFF79CBF22B9FFF749FF25462846F8BDD6
:1042F00000F030F8A0420FD221463846FFF78EFF7B
:1043000005460028F2D031462246FFF70FFF31461E
:104310003846FFF733FFE9E73546E7E738B5064D9E
:104320000023044608462B60FDF726F9431C02D102
:104330002B6803B1236038BDB8010020014800F0AC
:1043400011B800BFC0010020014800F00CB800BF48
:10435000C001002051F8043C181F002BBCBF0B58B3
:10436000C018704770477047F8B500BFF8BC08BC6C
:104370009E467047F8B500BFF8BC08BC9E46704723
:104380002536642025366420253664202536640AC7
:104390000D00000000000000000000000102030406
:1043A000060708090000000001020304232D302B3A
:1043B0002000686C4C006566674546470030313226
:1043C000333435363738394142434445460030317D
:1043D00032333435363738396162636465660000DC
:0843E0003CC5FF7F0100000055
:0443E800C501000803
:0443EC00A101000823
:1043F0000024F40010000000010000001000002064
:1044000000000000000000000000000000000000AC
:10441000000000000000000000000000000000009C
:10442000000000000000000000000000000000008C
:10443000000000000000000000000000000000007C
:10444000000000000000000000000000000000006C
:10445000000000000000000000000000000000005C
:0400000508001609D0
:00000001FF
